:020000040000FA
:1000000080314F28080008007E1480314E01961E72
:100010000A280B2813288C1E0E280F281328883135
:10002000CC2080314D280B1F162817284D28991DEC
:100030001A281B2823288F1D1E281F2823288831B3
:10004000BB2080314D28191D262827282F280F1D59
:100050002A282B282F2880317D2080314D28191EF9
:10006000322833283E280F1E362837283E284201E2
:100070006F088A006E080A0080314D28991E4128B9
:1000800042284D288F1E452846284D2842016D08DC
:100090008A006C080A0080314D287E1009008031EA
:1000A00051283330840089308500E23086000030EA
:1000B000870009308831D8208031FA01FB01FC012A
:1000C000FD01A03084000030850028308831D22026
:1000D000803120308400013085004A308831D220C0
:1000E0008031A03084000130850020308831D2205A
:1000F00080317E1040018E31252E4E010F114301BB
:100100009A1F83288428C6299A134101BE013B08FF
:10011000023E860087010108860087018101810A6D
:10012000BB01F229A21895289628F2292108F2008D
:100130007208BB002108860087010108F2007208DE
:10014000BD00210886008701413FBC000330F2005A
:100150007208A1072108C63A031DAF28B028B428A9
:10016000C330F2007208A100221021082006031DEE
:10017000BA28BB28BC28A21443011B140230F20089
:1001800072084101BE00F22943019B14BE284301BD
:100190001B1FCB28CC28D6280130F2007208410161
:1001A000A40704308A3100228031F2294101470836
:1001B000F3004608F200F336F20C72084301960091
:1001C0004101461CE428E528EA280B30F2007208B9
:1001D000BE00F2290330F2007208BE00F22943018A
:1001E0001B1FF328F428FE280130F2007208410199
:1001F000A40704308A3100228031F2299B14410186
:100200004708F3004608F2007308F200F3010630D5
:100210007205F40000307305F500F0307404C60078
:1002200000307504C7004614B801B80ABE28380368
:1002300003191B291C2932293C088600013087003C
:10024000403FC600413FC7003C08860001308700A0
:100250000130433FBA003C0886000130870001307E
:10026000423FB9004608430196004101461C392926
:100270003A29EA280530F2007208BE00F22943014B
:100280001B1F4329442950290130F2007208410103
:10029000A40743011B1305308A3100228031F22963
:1002A00001304101B902390A031D572958296A2929
:1002B0000430F2007208BC070130BD02031D612941
:1002C0006229672900308A3100228031F2294301F6
:1002D0009B14BE283A088600870101084301960056
:1002E0000130F20072084101BA07F22943011B1FD5
:1002F0007A297B2987290130F20072084101A4077D
:1003000004308A310022803143011B13F2299B15EE
:100310000830F20072084101BE00F2290830F200F4
:100320007208BE0043019B15F22943011608F20032
:1003300041013A0886008701720881000130F2000D
:100340007208BA070130B9020319A729A829B029F0
:1003500043019B120630F20072084101BE00B5292C
:1003600043019B1689316621803143011B16F22916
:1003700000308A3100228031F2290130F200720807
:10038000A40706308A3100228031F22941013E085B
:10039000F200F3017308003A0319CF29BD2972084E
:1003A000003A03199228013A0319C428033A0319A1
:1003B0001729013A03193F29073A0319B829013AC5
:1003C00003197629033A03198E29013A0319B8292A
:1003D0000F3A03199529023A0319C728013A03195C
:1003E000EF28BD2908004001D7004808DC00490873
:1003F000DD004A08DE004B08DF004C08E0004D0835
:10040000E1004E08E2004F08E3005C308600003057
:100410008700473FD000D01B0E2A102A0130112A36
:1004200000304001D100D2015108DA005208DB004F
:100430005A085B0403191D2A1E2A3C2ADC09DD091F
:10044000DE09DF09E009E109E209E309DC0A031D2D
:100450003C2ADD0A031D3C2ADE0A031D3C2ADF0A72
:10046000031D3C2AE00A031D3C2AE10A031D3C2A25
:10047000E20A031D3C2AE30A4101AA1B402A412A41
:10048000452AFD30AB05FF30AC052A08803A400113
:10049000D00080305002031D502A01304101290252
:1004A0000318532A542A5A2A01304001D50000303B
:1004B000D600622A41012A084001D60041012908DC
:1004C0004001D500410128084001D9004101270819
:1004D0004001D8005A085B04031D6F2A702A752A50
:1004E00041012B1D742A752A7A2AFF304001D80752
:1004F000FF30D93D1F304001E4000030E5004301EA
:10050000BF01EB2AFF304001E407FF30E53D0A3030
:10051000A000A101A201A301A401A501A601A701B8
:100520005C08A8005D08A9005E08AA005F08AB008F
:100530006008AC006108AD006208AE006308AF005F
:100540008F311327813140012108B4002008B30006
:100550008A318822813140013308303ED00064085E
:10056000A03E86000130870050088100FF30D5078B
:10057000FF30D63DFF30D807FF30D93D0A30A0000C
:10058000A101A201A301A401A501A601A7015C0884
:10059000A8005D08A9005E08AA005F08AB0060081B
:1005A000AC006108AD006208AE006308AF008431A2
:1005B0009D24813140012008DC002108DD00220853
:1005C000DE002308DF002408E0002508E1002608FB
:1005D000E2002708E30040016508803AD00080303F
:1005E0005002031DF52A01306402031CF82AF92A7F
:1005F000262B40015C085D045E045F046004610416
:1006000062046304031D052B062B822A5608803AD8
:10061000D00080305002031D0F2B0130550203180B
:10062000122B132B822A40015908803AD0008030C7
:100630005002031D1D2B01305802031C202B212BBF
:10064000262B4101AB18252B262B822A40015A0864
:100650005B04031D2C2B2D2B322B41012B1D312B29
:10066000322B4F2BFF304001E407FF30E53D5A08A5
:100670005B04031D3C2B3D2B422B2B30D300003061
:10068000D400462B2D30D3000030D4005308D000C6
:100690006408A03E860001308700500881004001B8
:1006A0006408A03ED0005008BF005908C100580897
:1006B000C00057088D311125813140014008C90023
:1006C0003F08C80008004001AD004101350803198A
:1006D0006A2B6B2B7C2C01304001A90029084101B9
:1006E000B50703303506031D762B772B9C2CB501FF
:1006F0009F2B7A0803197D2B7E2BB62B0130FA0233
:10070000B62B03307A020318862B872BB62B0130C9
:10071000A9002908FA07B62B13307B020318912B86
:10072000922BB62B0130A9002908FB07B62B7B08BA
:1007300003199B2B9C2BB62B0130FB02B62B4001DF
:100740002D08A900AA012A08003A0319A82BB62BE4
:100750002908413A0319792B033A0319812B013AED
:1007600003198C2B073A0319972BB62B7A08A9008B
:100770002908A3007B088B31572383319C2C41012E
:10078000B501B50A9C2C9812FA3089314921833180
:1007900020308A31A4228331400198167A08A900BA
:1007A0002908A3007B088B31572383319C2C01300F
:1007B000FB0214307B02031CDE2BDF2BED2B1330EE
:1007C000A9002908FB000130FA0204307A02031C58
:1007D000EA2BEB2BED2BFA01FB017A08A900290883
:1007E000A3007B088B315723833140019812FA30E4
:1007F00089314921833120308A31A422833140015B
:1008000098167A08A9002908A3007B088B31572382
:1008100083319C2C0130A9002908FA0704307A02A0
:10082000031C132C142C152CFA01FB017A08A900C7
:100830002908A3007B088B31572383319C2C04307B
:10084000A0000030A1007B08A900AA012908A2008D
:100850002A08A3008D31C525833140012008AB0053
:100860000130AB35FF3E031D312C2B35043EAC006F
:100870002C08FB0014307B02031C3F2C402C4C2C1A
:10088000FB010130A9002908FA0704307A02031C91
:100890004A2C4B2C4C2CFA017A08A9002908A300F9
:1008A0007B088B31572383319C2C8931572183312D
:1008B0009C2C9812FA3089314921833140012D084E
:1008C0008A31A4228331400198160130A9002908F9
:1008D000FB0714307B02031C6E2C6F2C9C2CFB013D
:1008E0000130A9002908FA0704307A02031C792C88
:1008F0007A2C9C2CFA019C2C40012D08A900AA01FD
:100900002A08003A0319852C592C2908083A03199A
:10091000D72B013A03191F2C033A03190A2C063A64
:100920000319552C013A03190A2C163A0319BF2B47
:10093000643A0319C32B592C08004001B20120303E
:10094000860000308700473FB000B01FA82CA92CBC
:10095000CB2C4001A009A109A209A309A409A5095A
:10096000A609A709A00A031DC82CA10A031DC82CAB
:10097000A20A031DC82CA30A031DC82CA40A031D28
:10098000C82CA50A031DC82CA60A031DC82CA70A3B
:100990004001B201B20A2830860000308700473F8C
:1009A0004001B000B01FD52CD62CFA2C4001A8096C
:1009B000A909AA09AB09AC09AD09AE09AF09A80A92
:1009C000031DF52CA90A031DF52CAA0A031DF52CFD
:1009D000AB0A031DF52CAC0A031DF52CAD0A031D53
:1009E000F52CAE0A031DF52CAF0A01304001B00012
:1009F0003008B206333086000030870008304001EE
:100A0000B00000301E00B00B022D2008210422048B
:100A1000230424042504260427040319102D112D72
:100A20006D2DB101B10A202DA035A10DA20DA30D90
:100A3000A40DA50DA60DA70D0130B0003008B1071B
:100A4000A71F232D242D142DB335B40DB50DB60DD0
:100A5000B70DB80DB90DBA0D27082F02031D4A2D89
:100A600026082E02031D4A2D25082D02031D4A2D9E
:100A700024082C02031D4A2D23082B02031D4A2D96
:100A800022082A02031D4A2D21082902031D4A2D8E
:100A900020082802031C4D2D4E2D5F2D2008A80292
:100AA0002108A93B2208AA3B2308AB3B2408AC3B06
:100AB0002508AD3B2608AE3B2708AF3B3314A736CD
:100AC000A60CA50CA40CA30CA20CA10CA00C01302C
:100AD000B102031D6C2D6D2D242D32080319712DCB
:100AE000722D902DB309B409B509B609B709B80933
:100AF000B909BA09B30A031D902DB40A031D902D3C
:100B0000B50A031D902DB60A031D902DB70A031DCB
:100B1000902DB80A031D902DB90A031D902DBA0A15
:100B200040013308A0003408A1003508A2003608AF
:100B3000A3003708A4003808A5003908A6003A0821
:100B4000A7000800003480344034C0342034A0347E
:100B50006034E034103490345034D0343034B03415
:100B60007034F034083488344834C8342834A83415
:100B70006834E834183498345834D8343834B834B5
:100B80007834F834043484344434C4342434A434FD
:100B90006434E434143494345434D4343434B434B5
:100BA0007434F4340C348C344C34CC342C34AC34B5
:100BB0006C34EC341C349C345C34DC343C34BC3455
:100BC0007C34FC34023482344234C2342234A234C1
:100BD0006234E234123492345234D2343234B23485
:100BE0007234F2340A348A344A34CA342A34AA3485
:100BF0006A34EA341A349A345A34DA343A34BA3425
:100C00007A34FA34063486344634C6342634A6346C
:100C10006634E634163496345634D6343634B63424
:100C20007634F6340E348E344E34CE342E34AE3424
:100C30006E34EE341E349E345E34DE343E34BE34C4
:100C40007E34FE34013481344134C1342134A13442
:100C50006134E134113491345134D1343134B1340C
:100C60007134F134093489344934C9342934A9340C
:100C70006934E934193499345934D9343934B934AC
:100C80007934F934053485344534C5342534A534F4
:100C90006534E534153495345534D5343534B534AC
:100CA0007534F5340D348D344D34CD342D34AD34AC
:100CB0006D34ED341D349D345D34DD343D34BD344C
:100CC0007D34FD34033483344334C3342334A334B8
:100CD0006334E334133493345334D3343334B3347C
:100CE0007334F3340B348B344B34CB342B34AB347C
:100CF0006B34EB341B349B345B34DB343B34BB341C
:100D00007B34FB34073487344734C7342734A73463
:100D10006734E734173497345734D7343734B7341B
:100D20007734F7340F348F344F34CF342F34AF341B
:100D30006F34EF341F349F345F34DF343F34BF34BB
:100D40007F34FF344101D0004001660886008701EE
:100D5000403FE800413FE9006808840069088500D9
:100D60001200253A031DB52EB62E6F2F6608860099
:100D700087010130810741310318810A4101A70130
:100D8000A801AB01AC01FF30A900FF30AA0040016F
:100D9000660886008701403FE800413FE900680897
:100DA0008400690885001200643A0319D82ED92EF0
:100DB000EA2E660886008701403FE800413FE900CF
:100DC00068088400690885001200693A031DE92E4D
:100DD000EA2E382F660886008701013081074131ED
:100DE0000318810A670886008701010884008501CD
:100DF00002308107003FE800013FE9006808410137
:100E0000C800400169084101C900890D893B890971
:100E1000CA00CB00CC00CD00CE00CF004808400176
:100E2000C800410149084001C90041014A08400188
:100E3000CA0041014B084001CB0041014C08400170
:100E4000CC0041014D084001CD0041014E08400158
:100E5000CE0041014F084001CF00410150088131CF
:100E6000F321863140014908E7004808E600942F45
:100E7000660886008701403FE800413FE9006808B6
:100E80008400690885001200253A031D482F492F68
:100E9000642F6608860087010130810741310318FD
:100EA000810A2530AF000030B000410150084001F8
:100EB000E8006808B1008C318A2486310130400195
:100EC000E6000030E700942F6608860087010130B5
:100ED000810741310318810AE601E701942F660872
:100EE00086008701403FE800413FE9006808840030
:100EF000690885000008EA00EB016A08AF006B088A
:100F0000B000410150084001EC006C08B1008C3188
:100F10008A248631400166088600870101308107F6
:100F200041310318810A5E2F080040019C019B019A
:100F300098019D0199019A0108309600BF309700F1
:100F40004B309200DA309300FF30940095017E011F
:100F5000D901CE010130C300E4013F307C01D00053
:100F60003F307E01B800DA017C01D1017E01E5014C
:100F7000C401B901CF01E6017C01D2017E01BA01B1
:100F8000C501D001DB01FF30BB00FF30C600FF30E0
:100F9000D100FF30DC000730E700FF307C01D300D8
:100FA000FF307E01BC00FF30C700FF30D200FF30B1
:100FB000DD000F30E800FF307C01D4000F30BE00B0
:100FC0000A307D01C5000B30C90016307E01980043
:100FD00015309A0018309B0017309C0009307D01B5
:100FE000C6000C30C8002F30CB0008006030510123
:100FF0008D008F019101063093009001920108004D
:101176004E018F11080044010E14080044010E10A0
:1011860008008A311A228831080042011D121D16F4
:1011960008004E018C1289313C2188310800640018
:1011A60080010131890BD3280034FE0012001E0095
:1011B600FE0BD928003441013E08031DE328E4282C
:1011C600DE280800013041019D00A0309E009B01F1
:1011D6009C0108004F0196019701980199019A0117
:1011E6009B010800403043018F002A3090000730F1
:1011F6008D000800400121084301C100400120087C
:101206004301C0000800400121084201EB004001F3
:1012160020084201EA000800400121084301C300FA
:10122600400120084301C200080040012108420194
:10123600ED00400120084201EC00080040012108B1
:101246004201EF00400120084201EE000800400183
:1012560021084101EE00400120084101ED0008008F
:101266000E3400340E3420340E340034FF3401348E
:10127600FF3441016D086E040319422943294829A8
:101286006E088A006D080A00893108004001A00036
:10129600430190134001200843018C000F1C542980
:1012A600552951290C08080040019812F830893157
:1012B6004921893101308A31A422893140019816A9
:1012C600FA01FB0108000430F00070084101BC0778
:1012D6000130BD02031D7029712976290430F00002
:1012E6007008BE007829BE01BE0A0800F300F201AC
:1012F600731C7E297F2983297008F1007108F20783
:101306000310F00D0310F30C7308031D8B298C29B1
:101316007B297208080046304B019F007C309D00F7
:101326009C014E018C12961603304001A00000303D
:10133600A10089312A21893180304B019E000800A5
:1013460044018F0190010430910086308D00E83011
:101356008C000D084101EC0044010C084101EB0032
:101366004E011010013044018E0008008A316C22B3
:1013760089318B170B178C31162489318C31162441
:1013860089318B310A2389319A304001A0000E3011
:10139600A10089312A2189310800D8304101DA00BB
:1013A6005A08DD0057084001EE0041015608400189
:1013B600ED00DD304101DA005A084001EF0000304F
:1013C6008B31E023893108004001AE0041016908F4
:1013D6000319EE29EF29F42940012E0883316323EE
:1013E6008931410136080319F929FA29FF294001F3
:1013F6002E088B31B02389310800F10043011B15FB
:1014060041013B08023E86008701010803190C2AA8
:101416000D2A182A7108F0003B08023E8600870153
:1014260001088600870170088100BE01080042019C
:101436001908F0007D08523E8600013087007008CA
:1014460081000130F0007008FD0708307D02031CA2
:101456002D2A2E2A2F2AFD010130F00070084101A5
:10146600C00708004001A4002408A2002208A30027
:10147600402A0130A2002208A40724088600013071
:1014860087000108031D482A492A3C2A230824020A
:10149600A000A101A01BA1030800C3304001A000C9
:1014A60020084101A100C3304001A00020084101ED
:1014B600A000A2142210A4014301990128309A0029
:1014C6009C01133097004E010F118F1119159915B4
:1014D60008008831ED208A31873195278A31873196
:1014E600F6278A318831F5208A318A3150228A31AD
:1014F6008831E5208A318931A3218A3189318E21CB
:101506008A318C31CB248A31080040013408803A74
:10151600B50080303502031D922A013033020318CC
:10152600952A962AA32A40013309B5003409B60044
:10153600B50A0319B60A3508B3003608B400A32A5B
:1015460008004001A2002208A23E8400853003184C
:10155600013E85000008A1002108A2002208F039FA
:10156600893149218A3140012208A1000330A13581
:10157600FF3E031DBA2A2135F039893149218A31C6
:101586000800083041016F020318CA2ACB2AE42A50
:1015960041085A3E860001308700010842019A0040
:1015A6000130F00070084101C10708304102031CF8
:1015B600DD2ADE2ADF2AC1010130F0007008EF07BC
:1015C600E62A4E01191208004001A6002308A500CC
:1015D6002208A400A435A50D260886000130870040
:1015E6002408C03F2508C13F2108A4002608023E62
:1015F600860001308700240881002008A400260800
:10160600033E86000130870024088100080002306E
:101616004001AE002E08B200410167084001B1004A
:10162600410166084001B0000230AE002E08A70056
:101636006830A8000030A9003230AF002F08AA0099
:1016460030308B3183238B3140013208031D2C2B24
:101656002D2B272B08004001BE00BC01BD01462BE7
:101666003B08B800B9013808AF003908B0003708A0
:10167600BA003A08B1008C318A248B31013040011E
:10168600BC070030BD3D3C083E07B8003808860060
:10169600013087000108B9003908BB003B08031D6B
:1016A600552B562B332B08004001A500143025027C
:1016B60003185E2B5F2B822B043023020318642B46
:1016C600652B822B2508A4002408FB002308A40010
:1016D6002408FA009812F830893149218B317A08AA
:1016E6004001A4000430A435FF3E031D762B2435AB
:1016F6007B0780388A31A4228B3140019816080076
:101706004001AD0041012218892B8A2BA92B4001EB
:101716002D08AB002B08A0002708AC002C08A10060
:101726002908A3002808A20066308A31E7228B31F7
:1017360066304001AB002B08A0002A08AC002C083C
:10174600A10001308D316A258B31AF2B40012A086B
:10175600860087018101810A08004001A10041013C
:101766006F080319B72BB82BB22B4E01191ABC2BD5
:10177600BD2BC22B4001210842019A00DD2B191214
:1017860040012108A000410142085A3E860001306E
:1017960087004001200881000130A0002008410197
:1017A600C20708304202031CD92BDA2BDB2BC201FD
:1017B6000130EF024E01191608004101D300400125
:1017C6006E084101D50040016D084101D400A50114
:1017D600A601052CD430D10051084001E6006F085F
:1017E6004101D20052084001E70041015308863109
:1017F600A2268B31400166084101A5074001670812
:101806004101A63D54088400550885001200031DB9
:101816000D2C0E2CED2B26084001EE00410125086B
:101826004001ED000800400199160B304001A3006D
:101836006230890B1C2CA30B1C2C00004001981253
:10184600F830893149218C313A308A31A4228C31E1
:1018560009308A31A4228C3172308A31A4228C312B
:10186600FA30893149218C3104308A31A4228C31F5
:10187600F830893149218C3138308A31A4228C31B3
:1018860001308A31A4228C310C308A31A4228C3169
:101896004001981608007D084A3E86000130870000
:1018A600810142011D1D582C592C642C7D084A3E8D
:1018B60086000130870081146B088A006A080A00D6
:1018C6008C3142019D1C682C692C752C7D084A3E82
:1018D6008600013087000115430143088A0042084B
:1018E6000A008C317D084A3E8600013087000108D7
:1018F60003197E2C7F2C862C430141088A00400860
:101906000A008C31892C8A311A228C310800400158
:10191600310803198F2C902C952C3108031D942C1B
:10192600952C9A2C2F088931E7218C31CA2C310845
:10193600033E86008701160001040319A32CA42C7C
:10194600C12C3108033E86008701403FB200413F6B
:10195600B300310A86008701403FB400413FB5001D
:101966003508803AB6003308803A3602031DBD2C8E
:10197600320834020318C02CC12CCA2C4001310A8B
:10198600860087010130810741310318810A08006A
:101996004E0199124E304001A0000C30A100893151
:1019A60018218C314E011912C4304001A0000A30B2
:1019B600A100893121218C31083042019F009030ED
:1019C6009D0024309E0044309B009C010230400163
:1019D600A0000030A100893106218C31C8304001B9
:1019E600A0000830A10089310F218C31C43040019C
:1019F600A0000830A1008831FD208C314101BF01D3
:101A0600C201C10108304001A20022084101EF00D5
:101A1600FD01FC01C0014E01991608004001C700F6
:101A260041012B1C172D182D212D40014708C200FE
:101A36004208B7003F088B312E238D314001C11B70
:101A4600252D262D2B2D4108C6004008C5002D2D1D
:101A5600C501C601C301C401412D20304001AF00BC
:101A66000030B0004708C2004208B1008C318A2419
:101A76008D3101304001C3070030C43D4408803A2F
:101A8600C2004608803A4202031D4B2D4508430218
:101A9600031C4E2D4F2D302D41012B18532D542D47
:101AA6005D2D40014708C2004208B7003F088B3150
:101AB6002E238D3140013F088A3135228D31400178
:101AC60045082007BF004608213DC0000800400128
:101AD600A30041012218702D712DAF2D0230400157
:101AE600A200210886008701220881002008A200A2
:101AF6004101200A8600870140012208810023084F
:101B0600A2004101200886008701400122088100C9
:101B16002108A20041012008023E860087014001FB
:101B2600220881000330A20022084101A0072008F4
:101B3600C63A031D9F2DA02DA62DC3304001A2003D
:101B460022084101A000A21021082006031DAC2D89
:101B5600AD2DB52D2214B52D400121088600870133
:101B66008101810A400121088600870102300106B1
:101B7600031DBE2DBF2DC42D8831DE208D314E01B3
:101B86000F1508004001A601A11FCA2DCB2DD22D8D
:101B9600A009A109A00A0319A10AA601A60AA31F62
:101BA600D52DD62DDF2DA209A309A20A0319A30A52
:101BB6000130A4002408A606A701A80120082104D4
:101BC6000319E62DE72D162EA501A50AF32D0130E2
:101BD600A035A10D890BEB2D0130A4002408A50723
:101BE600A11FF62DF72DEA2D0130A735A80D890B7B
:101BF600F82D21082302031D022E20082202031CB1
:101C0600052E062E0B2E2008A2022108A33B271420
:101C16000130A136A00C890B0C2E0130A502031D44
:101C2600152E162EF72D260803191A2E1B2E202EDA
:101C3600A709A809A70A0319A80A2808A1002708BE
:101C4600A00008008931B9218E3144018D018C0133
:101C560040018C171A30890B2E2E003240018C134E
:101C66000C1F362E372E332E8831BE208E31400182
:101C76000C1B3E2E3F2E3A2E8831C1208E31440158
:101C86000D084101E10044010C084101E000600833
:101C9600013EDE000030613DDF00DF36DE0C5E080F
:101CA600E0005F08E10000306102023003196002C3
:101CB600031C5E2E5F2E802E0030610265300319F4
:101CC60060020318672E682E802E893157218E31C7
:101CD60000304101D6009030D7006108D900600875
:101CE600D8008931D0218E311B304101D600903089
:101CF600D7008931D0218E318B2E893157218E31F3
:101D06000E304101D6009030D7008931D0218E3176
:101D160005304101DF000F30DE00F130890B912ED6
:101D2600DE0B912EDF0B912E282E80314F28F901E4
:101D36000730F4007408F0007908893179218E3172
:101D4600243E8600013087000103031DAB2EAC2E16
:101D5600082F0730F4007408F000790889317921DA
:101D66008E31203E860001308700403FF500413F1E
:101D7600F600423FF700433FF80078087704760400
:101D860075040319C72EC82E082F0730F4007408EF
:101D9600F0007908893179218E31203E86000130A4
:101DA60087000130810241310030813B41310030F2
:101DB600813B41310030813B7D310730F4007408AE
:101DC600F0007908893179218E31203E8600013074
:101DD6008700403FF500413FF600423FF700433F92
:101DE600F8007808770476047504031DFB2EFC2E94
:101DF600082F0730F4007408F0007908893179213A
:101E06008E31253E8600013087000130F4007408CB
:101E1600F90706307902031C112F122F9B2E08009A
:101E26004001B2012830860000308700473FB000ED
:101E3600B01F1E2F1F2F412F4001A809A909AA096B
:101E4600AB09AC09AD09AE09AF09A80A031D3E2FBF
:101E5600A90A031D3E2FAA0A031D3E2FAB0A031D26
:101E66003E2FAC0A031D3E2FAD0A031D3E2FAE0AC0
:101E7600031D3E2FAF0A4001B201B20A2030860090
:101E860000308700473F4001B000B01F4B2F4C2F5A
:101E96006B2F4001A009A109A209A309A409A5095C
:101EA600A609A709A00A031D6B2FA10A031D6B2F04
:101EB600A20A031D6B2FA30A031D6B2FA40A031D81
:101EC6006B2FA50A031D6B2FA60A031D6B2FA70AEE
:101ED60040012008210422042304240425042604A6
:101EE60027040319772F782FCB2FB101B10A872F3B
:101EF600A035A10DA20DA30DA40DA50DA60DA70D30
:101F06000130B0003008B107A71F8A2F8B2F7B2F17
:101F160027082F02031DA92F26082E02031DA92F0D
:101F260025082D02031DA92F24082C02031DA92F05
:101F360023082B02031DA92F22082A02031DA92FFD
:101F460021082902031DA92F20082802031CAC2FF3
:101F5600AD2FBD2F2008A8022108A93B2208AA3BC5
:101F66002308AB3B2408AC3B2508AD3B2608AE3B1B
:101F76002708AF3BA736A60CA50CA40CA30CA20CF5
:101F8600A10CA00C0130B102031DCA2FCB2F8B2F41
:101F960032080319CF2FD02FEE2FA809A909AA09B5
:101FA600AB09AC09AD09AE09AF09A80A031DEE2FAE
:101FB600A90A031DEE2FAA0A031DEE2FAB0A031D65
:101FC600EE2FAC0A031DEE2FAD0A031DEE2FAE0A4F
:101FD600031DEE2FAF0A40012808A0002908A10022
:101FE6002A08A2002B08A3002C08A4002D08A5008F
:101FF6002E08A6002F08A70008004434693473345D
:10200600743461346E346334653420343D342034A2
:102016002534693400344F347534743420346F34C5
:1020260066342034523461346E3467346534003497
:0620360063346D34003438
:020000040001F9
:0A000E00EC3FFF3F9F3FFF3FFF3F25
:00000001FF
