:020000040000FA
:1000000080316F2808000800803174084001E70043
:100010007C08E8007D08E9007E08EA007F08EB0024
:1000200058308600223087004E01961E1828192865
:1000300021288C1E1C281D2821289B3197238031C4
:1000400063280B1F242825286328991D2828292880
:1000500031288F1D2C282D2831288831002080310F
:100060006328191D342835283D280F1D38283928C4
:100070003D288631B72680316328191E4028412843
:1000800050280F1E44284528502841015B08FF00D6
:100090005A08FE007F088A007E080A008031632823
:1000A000991E5328542863288F1E572858286328E0
:1000B00041015908FF005808FE007F088A007E08A9
:1000C0000A008031632840016B08FF006A08FE00C7
:1000D0006908FD006808FC006708F4000900803129
:1000E0007128F33084009B3085005E30860000303C
:1000F000870009309B31A3238031F001F101F20127
:10010000F30120308400003085003E309B319D2378
:100110008031A03084000030850032309B319D2337
:100120008031203084000130850020309B319D23B8
:1001300080314001C0308600203087008031A02807
:1001400041319D31042580310030FF3FFF300607EB
:10015000F600FF30073DF70076081E0077081E0006
:100160009C31352480310A301E0000301E000030E2
:100170001E0000301E0000309C31C624803100304B
:10018000933156238031003A0319C728C828BF2865
:100190000A301E0000301E0000301E0000301E001D
:1001A00000309C31C62480318E2C9C31102480314B
:1001B000003A0319DC28DD28FC284D301E00993058
:1001C0001E0002301E009F310F2780311B149C142B
:1001D0009C18EB28EE2840011C14F02840011C104C
:1001E000F4301E0001301E0000301E0000301E00E2
:1001F00001309C31C624803140010E08FE399B0439
:100200000E0801389B050130933156238031003AA6
:1002100003190B290C292429031040011B1C03146A
:1002200003181329162940011B14182940011B101B
:10023000F4301E0001301E0000301E0000301E0091
:1002400001309C31C624803100309231E22280316D
:10025000003A03192C292D292F290130FF3F9C3109
:1002600050248031003A031936293729AA2C9C31B1
:100270005F24803101309D311A25803140019B017E
:100280009C101C10AA2C9C3110248031003A0319B8
:100290004A294B297629BF301E0099301E000230B2
:1002A0001E009F310F27803101301E0000301E00DC
:1002B00000301E0000301E0002309C31C624803108
:1002C0006E301E001C301E0002309C318F248031A5
:1002D000F4301E0001301E0000301E0000301E00F1
:1002E00001309C31C624803140019B140130933190
:1002F00056238031003A03197E297F29972903105C
:1003000040019B1C031403188629892940019B1472
:100310008B2940019B10F4301E0001301E0000307C
:100320001E0000301E0001309C31C6248031003098
:100330009231E2228031003A03199F29A029A22993
:100340000230FF3F9C3150248031003A0319A92923
:10035000AA29AA2C9C315F24803101309D311A25B5
:10036000803102309D311A25803140019B01AA2C39
:100370009C3110248031003A0319BF29C029E22999
:100380001B15F4301E0001301E0000301E0000302E
:100390001E0001309C31C62480311F301E00993070
:1003A0001E0002301E009F310F2780310030923135
:1003B0007622803100309231122280310030923129
:1003C0004422803102301E000030913127218031DB
:1003D0009531C6258031FE00FF017E081E007F0892
:1003E0001E00953177258031FE00FF017E081E003A
:1003F0007F081E00963115268031FE00FF017E0821
:100400001E007F081E0019301E009A301E000830A2
:100410001E009F310F2780310130933156238031E8
:10042000003A0319142A152A2D2AF4301E0001302F
:100430001E0000301E0000301E0001309C31C6241A
:100440008031031040011B1D03140318282A2B2A96
:1004500040011B152D2A40011B1100309231E22270
:100460008031003A0319352A362A382A0330FF3FF3
:100470009C3150248031003A03193F2A402AAA2C8B
:100480009C315F24803101309D311A25803140013B
:100490001B11AA2C9C3110248031003A0319512AD7
:1004A000522A6D2A00301E0098301E0002301E00B5
:1004B0009F310F278031F4301E0001301E000030C4
:1004C0001E0000301E0001309C31C62480314001E6
:1004D0009B1502309331CF23803101309331562365
:1004E0008031003A0319752A762A912AF4301E00C9
:1004F00001301E0000301E0000301E0001309C3113
:10050000C62480319131B2218031031040019B1DFE
:10051000031403188C2A8F2A40019B15912A40014D
:100520009B119631C3268031003A0319982A992AE3
:10053000B72A01301E000B30913127218031DF3086
:100540001E0000301E0095312B258031FE00FF017A
:10055000FE1BFF037E081E007F081E0028301E00C1
:100560009A301E0006301E009F310F278031003068
:100570009231E2228031003A0319BF2AC02AC22AEE
:100580000430FF3F9C3150248031003A0319C92ABE
:10059000CA2AAA2C01309331CF2380319C315F24A9
:1005A000803101309D311A25803140019B11AA2CE8
:1005B0009C3110248031003A0319DF2AE02AF72AFF
:1005C00074301E0099301E0002301E009F310F272C
:1005D0008031F4301E0001301E0000301E0000305B
:1005E0001E0001309C31C624803140011B160130B1
:1005F000933156238031003A0319FF2A002B182B20
:10060000F4301E0001301E0000301E0000301E00BD
:1006100001309C31C6248031031040011B1E03149D
:100620000318132B162B40011B16182B40011B120D
:1006300001301E00003091312721803100309E3181
:100640002C26803174081E0075081E001F301E0005
:1006500000301E0088310320803174081E007508A8
:100660001E000A301E0000301E00943154248031D8
:1006700074081E0075081E0000309E312C26803143
:1006800074081E0075081E0036301E0001301E0062
:1006900088310320803174081E0075081E00083060
:1006A0001E009A301E0006301E009F310F27803139
:1006B00001309E312C26803174081E0075081E0002
:1006C0001F301E0000301E00883103208031740866
:1006D0001E0075081E000A301E0000301E009431F6
:1006E0005424803174081E0075081E0001309E31AC
:1006F0002C26803174081E0075081E0036301E003E
:1007000001301E0088310320803174081E007508F6
:100710001E00F6301E0099301E0006301E009F316C
:100720000F27803100309231E2228031003A0319E4
:100730009A2B9B2B9D2B0530FF3F9C315024803101
:10074000003A0319A42BA52BAA2C9C315F248031DD
:1007500001309D311A25803140011B12AA2C9C3199
:1007600010248031003A0319B62BB72B232C9A3072
:100770001E0099301E0002301E009F310F2780316D
:1007800001301E00003091312721803101309E312F
:10079000A726803101301E0000309B31EA238031D2
:1007A00034301E0098301E0002301E009F310F278B
:1007B000803163301E0098301E0002301E009F31D1
:1007C0000F278031F0301E0098301E0002301E00CE
:1007D0009F310F27803192301E0098301E0002306A
:1007E0001E009F310F27803134301E0098301E00CC
:1007F00002301E009F310F278031DE301E009930FD
:100800001E0002301E009F310F27803100301E0075
:1008100001309B31EA23803142301E001C301E0023
:100820009B31C52380314E019916F4301E000130F2
:100830001E0000301E0000301E0001309C31C62416
:10084000803140019B160130933156238031003AAC
:1008500003192B2C2C2C442CF4301E0001301E00CC
:1008600000301E0000301E0001309C31C624803153
:10087000031040019B1E031403183F2C422C40011F
:100880009B16442C40019B1200309231E2228031B1
:10089000003A03194C2C4D2C4F2C0030FF3F9C315B
:1008A00050248031003A0319562C572CAA2C0130C1
:1008B0001E0000309B31EA23803132301E00983018
:1008C0001E0002301E009F310F278031C1301E00F4
:1008D00098301E0002301E009F310F2780313430C7
:1008E0001E0098301E0002301E009F310F278031FD
:1008F00000301E0001309B31EA2380319C315F249F
:10090000803100309E31A726803101309D311A257B
:10091000803140019B124E019912AA2C7F3FFE00AC
:10092000FF017F08003A0319962CAA2C7E08003A92
:100930000319D528013A03194329033A0319B829A1
:10094000013A03194A2A073A0319D82A013A031926
:10095000AF2BAA2C9C3106248031BF287F318031F7
:100960006F284E31F23F703F8400713F8500003F99
:10097000FE00013FFF007E0884007F088500120012
:10098000253A031DC42CC52C932E703F8400713F63
:1009900085000130800701310318800A4001B7014A
:1009A000B801BB01BC01FF30B900FF30BA00003014
:1009B000FD3FFE3F1D2D40013B14703F8400713F01
:1009C00085000130800701310318800A1D2D400188
:1009D000BB14DD2C40013B15DD2C4001BB15DD2C8B
:1009E00040013B16DD2C0130FD3F0030FE3F1D2D48
:1009F000703F8400713F8500003FFE00013FFF0013
:100A00007E0884007F0885000008FE00FF017F0843
:100A1000003A03190C2DF32C7E08203A0319ED2C13
:100A2000033A0319F02C083A0319EA2C063A031981
:100A3000DB2C1D3A0319E72CF32C7D3F03197E3F75
:100A40000319232D242DF82C40013B1C282D292D82
:100A50002A2DBB10703F8400713F8500003FFE00CF
:100A6000013FFF007E0884007F08850012002A3ABB
:100A7000031D3B2D3C2D662D703F8400713F85008A
:100A80000130800701310318800A6E3F84006F3FF8
:100A900085000230800201310030803B3F31003F51
:100AA000FE00013FFF007E0884007F088500003FB4
:100AB000B700013FB800B81F5E2D5F2DAF2D3B146E
:100AC000B709B809B70A0319B80AAF2D703F8400F7
:100AD000713F8500003FFE00013FFF007E081E00C1
:100AE0007F081E008831E120843174084001B7007E
:100AF0007508B800842D703F8400713F8500013077
:100B0000800701310318800A703F8400713F85001F
:100B1000003FFE00013FFF007E0884007F08850043
:100B20000008D03EFE00FF3003180030FF00003008
:100B30007F020A3003197E02031C9F2DA12D013074
:100B4000A22D0030FE00FF017E08F33F7F08F43F36
:100B5000733F0319743F031DAE2DAF2D7B2D703FE6
:100B60008400713F8500003FFE00013FFF007E08CA
:100B700084007F0885001200633A031DC02DC12D3B
:100B8000E52D703F8400713F850001308007013101
:100B90000318800A6E3F84006F3F85000230800298
:100BA00001310030803B3F31003FFE00013FFF003C
:100BB0007E0884007F0885000008FF3F7F3F1E00FD
:100BC000713F973184278431B52E703F8400713F87
:100BD0008500003FFE00013FFF007E0884007F0883
:100BE00085001200643A0319F62DF72D092E703F87
:100BF0008400713F8500003FFE00013FFF007E083A
:100C000084007F0885001200693A031D082E092E12
:100C10005E2E703F8400713F8500013080070131F6
:100C20000318800A6E3F84006F3F85000230800207
:100C300001310030803B3F31003FFE00013FFF00AB
:100C40007E0884007F088500003FFE00013FFF0012
:100C50007E084001EE007F084101EA000030EA1BF7
:100C6000FF30E900E800E700E600E500E4004001AD
:100C70006E08F53F41016A08F63F6908F73F6808CA
:100C8000F83F6708F93F6608FA3F6508FB3F6408CC
:100C9000FC3F753F1E00753F1E00753F1E00753FEF
:100CA0001E00753F1E00753F1E00753F1E00753FFC
:100CB0001E006A3F8C314D248431B52E703F840074
:100CC000713F8500003FFE00013FFF007E08840069
:100CD0007F0885001200253A031D6F2E702E872E87
:100CE000703F8400713F8500013080070131031897
:100CF000800A723F1E0025301E0000301E00943115
:100D00009A2484310130F4000030F500B52E703F94
:100D10008400713F85000130800701310318800A8B
:100D2000F401F501B52E723F1E006F3F8400703F45
:100D30008500003FFE00013FFF007E0884007F0821
:100D400085000008FE00FF017E081E007F081E00CF
:100D500094319A248431703F8400713F85000130C2
:100D6000800701310318800A822E6E3108004E017F
:100D70000F1143019A1FBD2EBE2ECB2F9A13400197
:100D8000C9014608023E84008501003FFE00013F84
:100D9000FF007E0884007F0885008001800AC6016C
:100DA000F72FB218D42ED52EF72F3108C6003108F0
:100DB000840085010008C800310884008501013FD6
:100DC000C7000430B10731085C3A031DE82EE92E54
:100DD000EB2E5830B100321031083006031DF12ED1
:100DE000F22EF32EB21443011B1402304001C9004D
:100DF000F72F43019B14F52E43011B1F002F012FDA
:100E0000082F4001B40A04309E3166268631F72F40
:100E100040015D08FF005C08FE00FF36FE0C7E0806
:100E20004301960040015C1C162F172F1A2F0B3020
:100E3000C900F72F0330C900F72F43011B1F212FD3
:100E4000222F292F4001B40A04309E3166268631B4
:100E5000F72F9B14063040015D05FF00F0307F0442
:100E6000DC000030DD005C14C401C40AF52E44032C
:100E700003193B2F3C2F502F470884008501003F6A
:100E8000DC00013FDD004708033E84008501003F90
:100E9000BF00013FC000470884008501023FC50034
:100EA0005C084301960040015C1C572F582F1A2FF5
:100EB0000530C900F72F43011B1F5F2F602F692FDB
:100EC0004001B40A43011B1305309E31662686316A
:100ED000F72F4001C503450A031D6F2F702F7E2F8A
:100EE0000530C707C80B752F762F7B2F00309E313A
:100EF00066268631F72F43019B14F52E3F088400A8
:100F0000400885000008430196004001BF0A03190C
:100F1000C00AF72F43011B1F8E2F8F2F982F4001E0
:100F2000B40A04309E316626863143011B13F72F25
:100F30009B1508304001C900F72F0830C900430154
:100F40009B15F72F3F0884004008850043011608D1
:100F500080004001BF0A0319C00AC5030319B12F5D
:100F6000B22FB82F43019B1206304001C900BD2F9C
:100F700043019B169C311B24863143011B16F72F1E
:100F800000309E3166268631F72FB40A06309E3136
:100F900066268631F72F40014908FE00FF017F08D1
:100FA000003A0319D42FC52F7E08003A0319D12E19
:100FB000013A0319F92E033A0319372F013A03199D
:100FC0005B2F073A0319C02F013A03198A2F033AFE
:100FD00003199D2F013A0319C02F0F3A0319A22FAD
:100FE000023A0319FC2E013A03191D2FC52F0800E0
:100FF000403043018F002A30900007308D000800F8
:101000004E018F11080043310030FD3FFE3F7B3F12
:1010100003197C3F03190D280E2851280130FF3F8A
:101020001A287B3F8935FB3F7C3F890DFC3F7F3F82
:10103000013EFF3F7C3F891F1E281F2811287D3F4E
:101040008935FD3F7E3F890DFE3F7A3FF4007C3FAE
:101050007402031D2F28793FF4007B3F7402031CA8
:10106000322833284228793FF4007B3F7402F93F4D
:101070007A3FF4007C3F743BFA3F7D3FF40001303F
:101080007404FD3F7C3F8936FC3F7B3F890CFB3F6E
:101090007F3FF40001307402FF3F031D50285128A8
:1010A0001F287D3FF4007E3FF50079310800433171
:1010B0000030FD3F07301E007C3F9E3110268831F6
:1010C000A43E840085010003031D67286828D428F6
:1010D00007301E007C3F9E3110268831A03E8400E0
:1010E0008501003FFC00013FFD00023FFE00033F81
:1010F000FF007F087E047D047C040319802881287A
:10110000D42807301E007C3F9E3110268831A03E37
:10111000840085010130800201310030803B0131C3
:101120000030803B01310030803B3D3107301E00F4
:101130007C3F9E3110268831A03E84008501003F0F
:10114000FC00013FFD00023FFE00033FFF007F085F
:101150007E047D047C04031DAE28AF28D42807300C
:101160001E007C3F9E3110268831A53E84008501FB
:10117000120000040319BD28BE28D42807301E0021
:101180007C3F9E3110268831A53E84008501003FBA
:10119000FE3F013FFF3F7E3FFE007F3FFF007F0895
:1011A0008A007E080A0088317D3F013EFD3F7D3F79
:1011B000FF0006307F02031CDE28DF285A287D311D
:1011C000080049310030FC3FFD3F0030FE3FFF3F4B
:1011D000F028753F013EF53FF401763F743DF63F40
:1011E0000130FB3F753F8400763F85001200203AB6
:1011F0000319FB28FC281229753F8400763F8500DF
:101200000008F73EFE00FF3003180030FF000030FA
:101210007F02053003197E02031C0F2910291229B1
:101220000030FB3F7B3FFE00FF017E08F93F7F0857
:10123000FA3F793F03197A3F031D1F292029E92826
:101240002D290130FE3F0030FF3F753F013EF53F45
:10125000F401763F743DF63F6429753F8400763F84
:1012600085000008FE00FF017F08003A03193929B4
:1012700064297E082B3A03192529063A03192129E6
:101280006429753F8400763F85000008FF000A301E
:101290001E0000301E007A3F1E007A3F1E009F3164
:1012A000D42788317508FD007F087402FC00031CF8
:1012B000FD037C08303EFE0000307D3DFF007E08CF
:1012C000FC3F7F08FD3F2529753F8400763F850060
:1012D0000008D03EFE00FF3003180030FF00003051
:1012E0007F020A3003197E02031C77297929013015
:1012F0007A290030FE00FF017E08F73F7F08F83FA3
:10130000773F0319783F031D8629872941297E3FAE
:1013100003197F3F031D8D298E2998297C3FF400F6
:101320007D3FF500F409F509F40A0319F50A9C2933
:101330007C3FF4007D3FF500753108004131FF3FEF
:10134000400142080319A529A629792AC20A0330B7
:101350004206031DAC29AD29982AC201CD29700887
:101360000319B329B429E329F003E32903307002F8
:101370000318BB29BC29E329F00AE32913307102C1
:101380000318C329C429E329F10AE32971080319C1
:10139000CA29CB29E329F103E3297F3FFE00FF019E
:1013A0007F08003A0319D529E3297E08413A031939
:1013B000AF29033A0319B629013A0319BE29073A9E
:1013C0000319C629E32970081E00710891312721ED
:1013D0008931982AC201C20A982A9812FA309C319F
:1013E0002824893120309D31F42589314001981617
:1013F00070081E007108913127218931982A143014
:10140000F1037102031C052A062A112A1330F10088
:101410000430F0037002031C0E2A0F2A112AF00177
:10142000F10170081E0071089131272189314001B6
:101430009812FA309C312824893120309D31F425CE
:1014400089314001981670081E00710891312721DA
:101450008931982A0430F00A7002031C302A312A9C
:10146000322AF001F10170081E0071089131272124
:101470008931982A7108FF00FF36FF367F08090777
:101480000907043EF10014307102031C482A492A5E
:10149000522AF101F00A04307002031C502A512A2A
:1014A000522AF00170081E007108913127218931FC
:1014B000982A9C315F248931982A9812FA309C31FD
:1014C000282489317F3F9D31F425893140019816C8
:1014D000F10A14307102031C6E2A6F2A982AF10156
:1014E000F00A04307002031C762A772A982AF00149
:1014F000982A7F3FFE00FF017F08003A0319812AE6
:101500005D2A7E08083A0319FF29013A03193A2A8D
:10151000033A03192A2A063A0319592A013A0319E8
:101520002A2A163A0319EA29643A0319ED295D2A91
:101530007F31080042310030FE3F753FFF00FF1F42
:10154000A22AA32AE82A753F89094101E400743FD1
:101550008909E500733F8909E600723F8909E700C0
:10156000713F8909E800703F8909E9006F3F8909E7
:10157000EA006E3F89094001EE00EE0A031DD42AFD
:101580004101EA0A031DD42AE90A031DD42AE80A04
:10159000031DD42AE70A031DD42AE60A031DD42A10
:1015A000E50A031DD42AE40A40016E08EE3F41011A
:1015B0006A08EF3F6908F03F6808F13F6708F23FAB
:1015C0006608F33F6508F43F6408F53F0130FE3FCD
:1015D0007D3FFF00FF1FED2AEE2A312B7D3F890959
:1015E0004101E4007C3F8909E5007B3F8909E60071
:1015F0007A3F8909E700793F8909E800783F89093E
:10160000E900773F8909EA00763F89094001EE0049
:10161000EE0A031D1F2B4101EA0A031D1F2BE90AD5
:10162000031D1F2BE80A031D1F2BE70A031D1F2B99
:10163000E60A031D1F2BE50A031D1F2BE40A4001C8
:101640006E08F63F41016A08F73F6908F83F6808ED
:10165000F93F6708FA3F6608FB3F6508FC3F6408EE
:10166000FD3F7D3FF4007C3FF4047B3FF4047A3F70
:10167000F404793FF404783FF404773FF404763FB0
:10168000F4040319442B452BF32B0130FF3F632B4C
:10169000763F8935F63F773F890DF73F783F890DD3
:1016A000F83F793F890DF93F7A3F890DFA3F7B3F3B
:1016B000890DFB3F7C3F890DFC3F7D3F890DFD3F40
:1016C0007F3F013EFF3F763F4101E300773FE2006D
:1016D000783FE100793FE0007A3FDF007B3FDE00AA
:1016E0007C3FDD007D3FDC00DC1F772B782B482B17
:1016F000753FF4007D3F7402031DA62B743FF40078
:101700007C3F7402031DA62B733FF4007B3F7402E1
:10171000031DA62B723FF4007A3F7402031DA62B13
:10172000713FF400793F7402031DA62B703FF40053
:10173000783F7402031DA62B6F3FF400773F7402BD
:10174000031DA62B6E3FF400763F7402031CA92BE9
:10175000AA2BD22B6E3FF400763F7402EE3F6F3F10
:10176000F400773F743BEF3F703FF400783F743BE9
:10177000F03F713FF400793F743BF13F723FF4005A
:101780007A3F743BF23F733FF4007B3F743BF33F7F
:10179000743FF4007C3F743BF43F753FF4007D3FA1
:1017A000743BF53F7D3F8936FD3F7C3F890CFC3F14
:1017B0007B3F890CFB3F7A3F890CFA3F793F890CCC
:1017C000F93F783F890CF83F773F890CF73F763F28
:1017D000890CF63F7F3FF40001307402FF3F031D88
:1017E000F22BF32B782B7E3F0319F72BF82B3B2C96
:1017F000753F89094101E400743F8909E500733FA1
:101800008909E600723F8909E700713F8909E8000C
:10181000703F8909E9006F3F8909EA006E3F890935
:101820004001EE00EE0A031D292C4101EA0A031DC6
:10183000292CE90A031D292CE80A031D292CE70A93
:10184000031D292CE60A031D292CE50A031D292C5A
:10185000E40A40016E08EE3F41016A08EF3F690863
:10186000F03F6808F13F6708F23F6608F33F6508FC
:10187000F43F6408F53F753FFD3F743FFC3F733F05
:10188000FB3F723FFA3F713FF93F703FF83F6F3FB8
:10189000F73F6E3FF63F7E3108005331ED3F6C3F1E
:1018A000F73F6B3FF63F6A3FF53F693FF43F683FC4
:1018B000F33F673FF23F663FF13F653FF03F773FC1
:1018C000FF00FF1B642C662C0130672C0030FE00EB
:1018D000FF017E08FA3F7F08FB3F7A3F03197B3FF9
:1018E0000319732C742CB72C773F89094101E4004C
:1018F000763F8909E500753F8909E600743F89094B
:10190000E700733F8909E800723F8909E900713FE8
:101910008909EA00703F89094001EE00EE0A031DC3
:10192000A52C4101EA0A031DA52CE90A031DA52CDB
:10193000E80A031DA52CE70A031DA52CE60A031DD2
:10194000A52CE50A031DA52CE40A40016E08F03F12
:1019500041016A08F13F6908F23F6808F33F6708F0
:10196000F43F6608F53F6508F63F6408F73F40011D
:10197000BA1BBB2CBC2CBD2CBB103A08803AF4001F
:1019800080307402031DC62C013039020318C92CA3
:10199000CA2CCF2C0130FE3F0030FF3FD82C400135
:1019A0003A08FF003908FE007E08FE3F7F08FF3F2F
:1019B00040013808FF003708FE007E08FC3F7F0822
:1019C000FD3F7A3F03197B3F031DE72CE82CEC2CED
:1019D0003B1DEB2CEC2CF62CFF30FE00FF30FF0003
:1019E0007C3F7E07FC3F7D3F7F3DFD3F1F30F83F42
:1019F0000030F93F4201BF01882DFF30FE00FF306B
:101A0000FF00783F7E07F83F793F7F3DF93F783F01
:101A1000203E8400013001308500703F1E00703F81
:101A20001E00703F1E00703F1E00703F1E00703F82
:101A30001E00703F1E00703F1E000A301E00003066
:101A40001E001E001E001E001E001E001E008A3109
:101A50009A228C3115004101DC001500DD001500D3
:101A6000DE001500DF001500E0001500E1001500A4
:101A7000E2001500E300783163081E0062081E00D2
:101A80009E3186268C317408303E8000FF30FE0087
:101A9000FF30FF007E3F7E07FE3F7F3F7F3DFF3FE1
:101AA000FF30FE00FF30FF007C3F7E07FC3F7D3FA4
:101AB0007F3DFD3F703F1E00703F1E00703F1E00C7
:101AC000703F1E00703F1E00703F1E00703F1E00E2
:101AD000703F1E000A301E0000301E001E001E0057
:101AE0001E001E001E001E008E3111268C311500B6
:101AF000E83F1500E83F1500E83F1500E83F1500F6
:101B0000E83F1500E83F1500E83F1500E83F783151
:101B1000783FFE00793FFF007F08803AF400803074
:101B20007402031D952D01307E02031C982D992D02
:101B3000D42D773FF400763FF404753FF404743FEE
:101B4000F404733FF404723FF404713FF404703FF3
:101B5000F404031DAC2DAD2DFD2C7E3FFE007F3F18
:101B6000FF007F08803AF40080307402031DBA2D14
:101B700001307E020318BD2DBE2DFD2C7C3FFE00E2
:101B80007D3FFF007F08803AF40080307402031D1F
:101B9000CB2D01307E02031CCE2DCF2DD42D400144
:101BA000BB18D32DD42DFD2C7A3F03197B3F031D89
:101BB000DA2DDB2DE02D40013B1DDF2DE02D022E27
:101BC000FF30FE00FF30FF00783F7E07F83F793F8F
:101BD0007F3DF93F7A3F03197B3F031DF02DF12D27
:101BE000F62D2B30EE3F0030EF3FFA2D2D30EE3F3B
:101BF0000030EF3F783F203E840001300130850007
:101C00006E3F80007C3F1E007C3F1E002030F400B1
:101C1000763F74071E006A3F963165268C31653128
:101C200008004A310030FE3F753FFF00FF1F192EAC
:101C30001A2E5F2E753F89094101E400743F89091E
:101C4000E500733F8909E600723F8909E700713FAB
:101C50008909E800703F8909E9006F3F8909EA00B6
:101C60006E3F89094001EE00EE0A031D4B2E410133
:101C7000EA0A031D4B2EE90A031D4B2EE80A031D39
:101C80004B2EE70A031D4B2EE60A031D4B2EE50AD9
:101C9000031D4B2EE40A40016E08EE3F41016A0825
:101CA000EF3F6908F03F6808F13F6708F23F6608B8
:101CB000F33F6508F43F6408F53F0130FE3F6D3F98
:101CC000FF00FF1F642E652EAB2E6D3F8909410179
:101CD000E4006C3F8909E5006B3F8909E6006A3F33
:101CE0008909E700693F8909E800683F8909E90037
:101CF000673F8909EA00663F89094001EE00EE0A64
:101D0000031D962E4101EA0A031D962EE90A031DC2
:101D1000962EE80A031D962EE70A031D962EE60A64
:101D2000031D962EE50A031D962EE40A40016E0857
:101D3000E63F41016A08E73F6908E83F6808E93F74
:101D40006708EA3F6608EB3F6508EC3F6408ED3F33
:101D50007E3F013AFE3F0030F63FF73FF83FF93F44
:101D6000FA3FFB3FFC3FFD3F753FF400743FF40436
:101D7000733FF404723FF404713FF404703FF404C1
:101D80006F3FF4046E3FF4040319C72EC82EA62F2C
:101D90000130FF3FE62E6E3F8935EE3F6F3F890DE4
:101DA000EF3F703F890DF03F713F890DF13F723F6A
:101DB000890DF23F733F890DF33F743F890DF43F66
:101DC000753F890DF53F7F3F013EFF3F6E3F41016B
:101DD000E3006F3FE200703FE100713FE000723FBF
:101DE000DF00733FDE00743FDD00753FDC00DC1F69
:101DF000FA2EFB2ECB2E763F8935F63F773F890DA5
:101E0000F73F783F890DF83F793F890DF93F7A3FD9
:101E1000890DFA3F7B3F890DFB3F7C3F890DFC3FDD
:101E20007D3F890DFD3F6D3FF400753F7402031D3A
:101E3000412F6C3FF400743F7402031D412F6B3F30
:101E4000F400733F7402031D412F6A3FF400723F98
:101E50007402031D412F693FF400713F7402031D9A
:101E6000412F683FF400703F7402031D412F673F0C
:101E7000F4006F3F7402031D412F663FF4006E3F74
:101E80007402031C442F452F852F663FF4006E3FDC
:101E90007402E63F673FF4006F3F743BE73F683FE3
:101EA000F400703F743BE83F693FF400713F743BBE
:101EB000E93F6A3FF400723F743BEA3F6B3FF40036
:101EC000733F743BEB3F6C3FF400743F743BEC3F5B
:101ED0006D3FF400753F743BED3F763F0138F63FB0
:101EE000773F0038F73F783F0038F83F793F0038B8
:101EF000F93F7A3F0038FA3F7B3F0038FB3F7C3F99
:101F00000038FC3F7D3F0038FD3F753F8936F53F87
:101F1000743F890CF43F733F890CF33F723F890C87
:101F2000F23F713F890CF13F703F890CF03F6F3FEA
:101F3000890CEF3F6E3F890CEE3F7F3FF40001308C
:101F40007402FF3F031DA52FA62FFB2E7E3F031912
:101F5000AA2FAB2FEE2F7D3F89094101E4007C3F82
:101F60008909E5007B3F8909E6007A3F8909E70096
:101F7000793F8909E800783F8909E900773F8909B5
:101F8000EA00763F89094001EE00EE0A031DDC2FCE
:101F90004101EA0A031DDC2FE90A031DDC2FE80AD0
:101FA000031DDC2FE70A031DDC2FE60A031DDC2FCF
:101FB000E50A031DDC2FE40A40016E08F63F4101EB
:101FC0006A08F73F6908F83F6808F93F6708FA3F71
:101FD0006608FB3F6508FC3F6408FD3F7D3FF53F19
:101FE0007C3FF43F7B3FF33F7A3FF23F793FF13F45
:101FF000783FF03F773FEF3F763FEE3F7631080086
:10200000003480344034C0342034A0346034E034B0
:10201000103490345034D0343034B0347034F03420
:10202000083488344834C8342834A8346834E83450
:10203000183498345834D8343834B8347834F834C0
:10204000043484344434C4342434A4346434E43450
:10205000143494345434D4343434B4347434F434C0
:102060000C348C344C34CC342C34AC346C34EC34F0
:102070001C349C345C34DC343C34BC347C34FC3460
:10208000023482344234C2342234A2346234E23420
:10209000123492345234D2343234B2347234F23490
:1020A0000A348A344A34CA342A34AA346A34EA34C0
:1020B0001A349A345A34DA343A34BA347A34FA3430
:1020C000063486344634C6342634A6346634E634C0
:1020D000163496345634D6343634B6347634F63430
:1020E0000E348E344E34CE342E34AE346E34EE3460
:1020F0001E349E345E34DE343E34BE347E34FE34D0
:10210000013481344134C1342134A1346134E134A7
:10211000113491345134D1343134B1347134F13417
:10212000093489344934C9342934A9346934E93447
:10213000193499345934D9343934B9347934F934B7
:10214000053485344534C5342534A5346534E53447
:10215000153495345534D5343534B5347534F534B7
:102160000D348D344D34CD342D34AD346D34ED34E7
:102170001D349D345D34DD343D34BD347D34FD3457
:10218000033483344334C3342334A3346334E33417
:10219000133493345334D3343334B3347334F33487
:1021A0000B348B344B34CB342B34AB346B34EB34B7
:1021B0001B349B345B34DB343B34BB347B34FB3427
:1021C000073487344734C7342734A7346734E734B7
:1021D000173497345734D7343734B7347734F73427
:1021E0000F348F344F34CF342F34AF346F34EF3457
:1021F0001F349F345F34DF343F34BF347F34FF34C7
:102202004131FF3F40016F080319082909290329B9
:102212004E01191A0D290E2912297F3F42019A00F7
:10222200232919127308283E840085017F3F80000C
:10223200F30A08307302031C1F2920292129F30104
:102242004001EF034E0119167F3108004131FF3F73
:102252007F3FFF0014307F020318302931295229B1
:102262007E3FFF0004307F020318382939295229A2
:102272007F3FF1007E3FF00040019812F8309C3120
:10228200282491317008F4000430F435FF3E031D18
:1022920046297435710780389D31F425913140010A
:1022A20098167E3108004331FD3F0830FF3F003071
:1022B200FE3F7D3FFF000730FF36890B5D297E3FE1
:1022C20009357F04FE3F7D3F8935FD3F7E3FFF009C
:1022D2007C3F7F02031C6E296F2976297C3FFF0019
:1022E2007E3FF4007F087402FE3F7F3FF40001301E
:1022F2007402FF3F031D7E297F295A297E3F7C31CC
:10230200080043310230FF3F40016308FF006208CA
:10231200FE007E08FD3F7F08FE3FFF300607F60005
:10232200FF30073DF70076081E0077081E00683070
:102332001E0000301E0002301E00F8300607F600B4
:10234200FF30073DF70076081E0077081E009F3118
:10235200322791317F3F031DAF29B029AB297D314F
:10236200080043310230FF3F40016108FF0060086E
:10237200FE007E08FD3F7F08FE3FFF300607F600A5
:10238200FF30073DF70076081E0077081E00683010
:102392001E0000301E0002301E00F8300607F60054
:1023A200FF30073DF70076081E0077081E009F31B8
:1023B200322791317F3F031DDF29E029DB297D315F
:1023C20008004331FD3F7B3FFE3F7C3FFF3F400122
:1023D200B501B601032A793F1E00793F1E00FC3089
:1023E2000607F600FF30073DF70076081E00770863
:1023F2001E00793F8431B124913174084001B50740
:102402007508B63D7E3F84007F3F85001200031DA4
:102412000B2A0C2AEC293608F5003508F40079312C
:1024220008004431FC3F0230FF3F0030FD3FFE3FD9
:102432000130FD3F7C3F9D3174259231FE3FFF30DC
:102442000607F600FF30073DF70076081E00770802
:102452001E0068301E0000301E0002301E00F830E0
:102462000607F600FF30073DF70076081E007708E2
:102472001E009F31322792317F3F031D412A422A9B
:102482003D2A7C3108004431FC3F0230FF3F0030DE
:10249200FD3FFE3F0030FD3F7C3F9D317425923170
:1024A200FE3FFF300607F600FF30073DF7007608D3
:1024B2001E0077081E0068301E0000301E00023029
:1024C2001E00F8300607F600FF30073DF7007608D9
:1024D2001E0077081E009F31322792317F3F031D75
:1024E200732A742A6F2A7C3108004431FC3F02307F
:1024F200FF3F0030FD3FFE3F0230FD3F7C3F9D31FC
:1025020074259231FE3F7E3F3F39FE3FFF30060782
:10251200F600FF30073DF70076081E0077081E0020
:1025220068301E0000301E0002301E00F830060720
:10253200F600FF30073DF70076081E0077081E0000
:102542009F31322792317F3F031DA82AA92AA42A4C
:102552007C310800400199160B30F4006230890B7F
:10256200B02AF40BB02A003240019812F8309C31A4
:10257200282492313A309D31F425923109309D312F
:10258200F425923172309D31F4259231FA309C312A
:102592002824923104309D31F4259231F8309C3157
:1025A2002824923138309D31F425923101309D3109
:1025B200F42592310C309D31F42592314001981668
:1025C20008004231FE3F0030FF3F7E3F1E004001C7
:1025D2000E089D3146259231003A0319F12AF22A5A
:1025E200002B7E3F1E00400166089D314625923138
:1025F200003A031DFD2AFE2A002B0130FF3F013065
:10260200FF007E3F890A062BFF35890B052B7F08C9
:1026120040010E05E6040130FF007E3F890A122BBD
:10262200FF35890B112B7F08FF3A0E04E6057F3F29
:102632007E3108004331FD3F0030FE3F7C3F0319ED
:10264200232B242B532B0130FF3F2D2B7C3F89352D
:10265200FC3F7F3F013EFF3F7C3F891F312B322BE6
:10266200272B7E3F8935FE3F7D3FFF007C3F7F0267
:10267200031C3C2B3D2B472B7C3FFF007D3FF4008E
:102682007F087402FD3F7E3F0138FE3F7C3F893662
:10269200FC3F7F3FF40001307402FF3F031D522BC9
:1026A200532B322B7E3F7C3108004231FE3F0030FB
:1026B200FF3F7E3FFF0006307F020318612B622B33
:1026C2008F2B07301E007D3F9E3110269331A43E92
:1026D200840085010003031D6F2B702B8F2B0730A5
:1026E2001E007D3F9E3110269331A03E840085015D
:1026F200003FFC00013FFD00023FFE00033FFF00E0
:102702007F087E047D047C04031D882B892B8F2B7C
:102712007E3F9D311A2593310130FF3F7F3F7E314D
:1027220008004E0199120F301E0014301E009B311A
:10273200C52393314E011912D8301E001D301E00E0
:102742009B31CC239331083042019F0090309D0091
:1027520024309E0044309B009C0102301E00003059
:102762001E009B31B723933193301E001B301E0095
:102772009B31BE2393318F301E001B301E009B31D4
:10278200B02393314001CA01F301CD010830EF00BB
:10279200F201CC01CB014E01991608004531FB3FF5
:1027A20040019812F8309C31282493313A309D31FF
:1027B200F425933172309D31F4259331FA309C31F6
:1027C200282493317B3F0319E72BE82BFC2B7B3F1B
:1027D200013A0319ED2BEE2BF32B0830FC3F0030AE
:1027E200FD3FF72B0430FC3F0030FD3F7C3FFE3FB6
:1027F2007D3FFF3FFF2B0030FE3FFF3F7E3F9D317D
:10280200F4259331F8309C312824933138309D31AE
:10281200F4259331400198167B3108007208203E5E
:1028220084008501800142011D1D182C192C282CC1
:102832007208203E84008501801441015708FF0080
:102842005608FE007F088A007E080A009431420181
:102852009D1C2C2C2D2C3C2C7208203E84008501C2
:10286200001541015508FF005408FE007F088A0048
:102872007E080A0094317208203E84008501000817
:102882000319442C452C502C41015308FF005208D7
:10289200FE007F088A007E080A009431532C9C3186
:1028A200A0249431080041317D3F03197E3F031972
:1028B2005B2C5C2C942C0130FF3F682C7D3F8935CA
:1028C200FD3F7E3F890DFE3F7F3F013EFF3F7E3F42
:1028D200891F6C2C6D2C5F2C7C3FF4007E3F7402B0
:1028E200031D772C7B3FF4007D3F7402031C7A2C7E
:1028F2007B2C852C7B3FF4007D3F7402FB3F7C3FA9
:10290200F4007E3F743BFC3F7E3F8936FE3F7D3FB5
:10291200890CFD3F7F3FF40001307402FF3F031D2D
:10292200932C942C6D2C7B3FF4007C3FF5007B3183
:1029320008007D3F03199E2C9F2CA42C7D3F031D74
:10294200A32CA42CA92C7E3F9D318C259431E02C04
:102952007D3FFF007F08033E8400850112000004D2
:102962000319B42CB52CD62C7D3FFF007F08033E03
:1029720084008501003FFE00013FFF007D3FFD0016
:102982007D0A84008501003FFC00013FFD007D08B7
:10299200803AF4007F08803A7402031DD22C7E082C
:1029A2007C020318D52CD62CE02C7D3FFF007F0A39
:1029B200840085010130800701310318800A7D31CE
:1029C20008004131FF3F40013218E82CE92C142D58
:1029D2007C3F84007D3F850002308000300A840005
:1029E20085017E3F80003008840085017F3F8000A2
:1029F2003008023E840085017C3F803F7D3F813F5D
:102A02000430B00730085C3A031D082D092D0B2D48
:102A12005830B000B21031083006031D112D122DAE
:102A22001A2D32141A2D7C3F84007D3F85008001CF
:102A3200800A7C3F84007D3F850002300006031D32
:102A4200232D242D292D9B31A92394314E010F15BD
:102A52007C31080042310230FE3F1130FF3FFE3030
:102A62000607F600FF30073DF70076081E007708DC
:102A72001E0068301E0000301E0001301E00FA30B9
:102A82000607F600FF30073DF70076081E007708BC
:102A92001E009F31322795317E3F031D512D522D4D
:102AA2004D2DFE300607F600FF30073DF700760891
:102AB2001E0077081E0068301E0000301E00013024
:102AC2001E00FA300607F600FF30073DF7007608D1
:102AD2001E0077081E009F31582795317E3F031D47
:102AE200732D742D6F2D7F3F7E31080042310230ED
:102AF200FE3F0130FF3FFE300607F600FF30073D84
:102B0200F70076081E0077081E0068301E000030AD
:102B12001E0001301E00FA300607F600FF30073DA6
:102B2200F70076081E0077081E009F313227953184
:102B32007E3F031D9D2D9E2D992DFE300607F6002A
:102B4200FF30073DF70076081E0077081E00683048
:102B52001E0000301E0001301E00FA300607F6008B
:102B6200FF30073DF70076081E0077081E009F31F0
:102B7200582795317E3F031DBF2DC02DBB2D7F3FB2
:102B82009C31EF2495317E31080042310230FE3F04
:102B92000030FF3FFE300607F600FF30073DF7002A
:102BA20076081E0077081E0068301E0000301E00E6
:102BB20001301E00FA300607F600FF30073DF7002D
:102BC20076081E0077081E009F31322795317E3F1E
:102BD200031DEC2DED2DE82DFE300607F600FF302B
:102BE200073DF70076081E0077081E0068301E00B9
:102BF20000301E0001301E00FA300607F600FF30DA
:102C0200073DF70076081E0077081E009F315827FF
:102C120095317E3F031D0E2E0F2E0A2E7F3F9C31D3
:102C2200EF2495317E31080042310230FE3F0230FE
:102C3200FF3FFE300607F600FF30073DF70076083B
:102C42001E0077081E0068301E0000301E00013092
:102C52001E00FA300607F600FF30073DF70076083F
:102C62001E0077081E009F31322796317E3F031DDA
:102C72003B2E3C2E372EFE300607F600FF30073D76
:102C8200F70076081E0077081E0068301E0000302C
:102C92001E0001301E00FA300607F600FF30073D25
:102CA200F70076081E0077081E009F3158279631DC
:102CB2007E3F031D5D2E5E2E592E7F3F3F399C3194
:102CC200EF2496317E3108004531FB3F40013B1C29
:102CD2006B2E6C2E722E7B3F1E00793F9F31A927EF
:102CE2009631783FFE00793FFF00FF1B792E7A2E46
:102CF2007F2E783FFC3F793FFD3F822E0030FC3F24
:102D0200FD3F0030FE3FFF3F962E7B3F1E002030EE
:102D12001E0000301E0094319A2496317E3F013EFF
:102D2200FE3FF4017F3F743DFF3F7C3FFE007D3F4D
:102D3200FF007E3FFC007F3FFD007D08803AF400EB
:102D42007F08803A7402031DA82E7E087C02031CB1
:102D5200AB2EAC2E862E40013B18B02EB12EB72ED4
:102D62007B3F1E00793F9F31A92796317A3F9D31E3
:102D7200BD2596317C3F7407F4007D3F753DF5001B
:102D82007831080043310230FF3F40015F08FF0005
:102D92005E08FE007E08FD3F7F08FE3FFF3006070B
:102DA200F600FF30073DF70076081E0077081E0088
:102DB20068301E0000301E0001301E00F830060789
:102DC200F600FF30073DF70076081E0077081E0068
:102DD2009F31322796317F3F031DF02EF12EEC2ECC
:102DE200FF300607F600FF30073DF70076081E00A9
:102DF20077081E0068301E0000301E0001301E00E1
:102E0200F8300607FE00FF30073DFF007E08013E56
:102E1200FE0000307F3DFF007E081E007F081E007E
:102E22009F31582796317F3F031D182F192F142FDA
:102E32007E3F891A1D2F1E2F202F0130212F003097
:102E42007D31080040019C019B0198019D0199017F
:102E52009A0108309600BF309700CB309200DA30EA
:102E62009300FF30940095017E01D901CE0101301B
:102E7200C300E4013F307C01D0003F307E01B80046
:102E8200DA017C01D1017E01E501C401B901CF0162
:102E9200E6017C01D2017E01BA01C501D001DB014C
:102EA200FF30BB00FF30C600FF30D100FF30DC0036
:102EB2000730E700FF307C01D300FF307E01BC0009
:102EC200FF30C700FF30D200FF30DD000F30E800D6
:102ED200FF307C01D4000F30BE000A307D01C500F6
:102EE2000B30C90016307E01980015309A00183058
:102EF2009B0017309C0009307D01C6000C30C800D1
:102F02002F30CB0008004531FB3F40013708380421
:102F1200031D8C2F8D2F962F3808FF003708FE00D7
:102F22007E08FC3F7F08FD3FA02F3708FF3EFE00D2
:102F3200FF30383DFF007E08FC3F7F08FD3F3B1C11
:102F4200A32FA42FB02F7B3F1E00793FFE00FF016D
:102F52007E081E007F081E0094319A2497317C3F20
:102F6200FE007D3FFF00FF1BB72FB82FB92FBC2FEC
:102F72000030FC3FFD3F0030FE3FFF3FD02F7B3F44
:102F82001E0020301E0000301E0094319A2497311A
:102F92007E3F013EFE3FF4017F3F743DFF3F7C3F99
:102FA200FE007D3FFF007E3FFC007F3FFD007D086D
:102FB200803AF4007F08803A7402031DE22F7E08F3
:102FC2007C02031CE52FE62FC02F40013B18EA2F9D
:102FD200EB2FF72F7B3F1E00793FFE00FF017E089B
:102FE2001E007F081E0094319A2497317E3F013ED5
:102FF200F4007F3FF5000030F53D7A31080052348D
:10300200543443342034543465346D34703465346C
:103012007234613474347534723420345434653407
:10302200733474340A34543465346D347034653412
:10303200723461347434753472343A340A340A3472
:1030420077346534693474346534723420346D34C1
:10305200693474342034543430342E342E342E34C3
:1030620000340A340D342A342A342A342A342A34D5
:103072002A342A342A342A342A342A342A342A345E
:103082002A342A342A342A342A342A342A342A344E
:103092002A342A342A342A342A342A342A342A343E
:1030A2002A342A342A342A342A342A342A342A342E
:1030B2002A342A342A342A342A342A342A340A343E
:1030C2000D3400342A342034203420342034203487
:1030D20020342034503449344334203442346F3461
:1030E200613472346434203441346434763461346B
:1030F2006E346334653464342034373420342034FD
:10310200203420342034203420342034203420341D
:10311200203420342034203420342A340A340D342C
:1031220000342A3420342034203420342034203413
:103132002034483461347234643477346134723404
:1031420065342D34543465347334743473346F34C9
:103152006634743477346134723465342034203404
:1031620020342034203420342034203420342034BD
:1031720020342034203420342A340A340D340034EC
:103182002A34203420342034203420342034203493
:103192005534413452345434203454346534733405
:1031A20074342034773475347234643465342034A2
:1031B2006234653465346E34643465347434203476
:1031C200203420342034203420342034203420345D
:1031D2002034203420342A340A340D3400342A3482
:1031E2002034203420342034203420342034493414
:1031F2004334543420344234653472347534663482
:103202007334623469346C34643475346E346734C4
:103212007334633465346E347434653472342034F8
:1032220041344734203420342034203420342034B4
:10323200203420342A340A340D34003452345434C5
:103242004334203454346534733474340A34563479
:103252006534723473347434723469346334683468
:1032620065346E34653420345A34653469347434C8
:103272003A340A340A347734653469347434653440
:10328200723420346D34693474342034543430341C
:103292002E342E342E340034543461347334743466
:1032A20065347234203475346E34643420344C34D2
:1032B20045344434733420345434653473347434B0
:1032C2000A340A34773465346934743465347234B8
:1032D20020346D34693474342034543430342E3410
:1032E2002E342E34003450346F34743465346E34DA
:1032F200743469346F346D346534743465347234C3
:10330200203454346534733474340A340A340A343D
:1033120077346534693474346534723420346D34EE
:10332200693474342034543430342E342E342E34F0
:1033320000345534413452345434203442346134EC
:10334200753464343A3420343134313435343234DF
:10335200303430340A340A340A3477346534693408
:1033620074346534723420346D34693474342034E6
:10337200543430342E342E342E34003453347534D5
:103382006D346D346534723420345434653473349E
:1033920074340A340A340A34773465346934743440
:1033A2006534723420346D346934743420345434C6
:1033B20030342E342E342E3400340A3442346934FC
:1033C2007434743465342034543465347834743449
:1033D2002034653469346E3467346534623465345C
:1033E2006E343A340A340D3400340A3450346F34B3
:1033F200743431343A34203425343034313469343D
:103402002E34253430343134693456340034503457
:103412006F34743430343A34203425343034313417
:1034220069342E342534303431346934563400341E
:1034320025343034323469343A3425343034323439
:1034420069343A3425343034323469340034253422
:0C345200333469342534633443340034CF
:10371E009C31A0249B31080042011D121D16080089
:10372E004E018C129C317E249B3108006400800176
:10373E000131890B9E2B0034F40012001E00F40B95
:10374E00A42B003440014908031DAE2BAF2BA92B2F
:10375E0008007E3F4101D2007F3FD3007E3108003A
:10376E007E3F4101D6007F3FD7007E3108007E3F6D
:10377E004101D4007F3FD5007E3108007E3F4101DC
:10378E00D8007F3FD9007E3108007E3F4101DA002C
:10379E007F3FDB007E3108007E3F4001EC007F3F23
:1037AE00ED007E310800013041019D00A0309E00E9
:1037BE009B019C0108004F01960197019801990108
:1037CE009A019B0108004131FF3F7F3F4001E50018
:1037DE007E3FC3007E3108000E3400340E34203498
:1037EE000E340034FF340134FF34603051018D004B
:1037FE008F01910106309300900192010800400163
:10380E004108E4003D0884003E0885000008C10020
:10381E0008004001410864060319162C172C192CB8
:10382E0001301A2C0030080005304001C707C80BC4
:10383E00212C222C252C0430C900272CC901C90AA1
:10384E0008004131FF3F430190137F3F8C000F1C56
:10385E00312C322C2E2C0C087F3108007E3F40017B
:10386E00BD007F3FBE003D0884003E088500000875
:10387E00C1007E310800413142011908FF3F7F3FF0
:10388E0089319E219C317F3F913101219C317F31C5
:10389E00080040013D0884003E08850000084106EE
:1038AE0003195A2C5B2C5D2C01305E2C0030080065
:1038BE0040019812F8309C3128249C3101309D3102
:1038CE00F4259C3140019816F001F10108000430F6
:1038DE0040019C0601301E0000301E0000301E000C
:1038EE0000301E0002309C31C6249C31080040017D
:1038FE006C086D040319842C852C8E2C6D08FF002A
:10390E006C08FE007F088A007E080A009C310800C1
:10391E004131FF3F07301E007E3F9E3110269C3105
:10392E00A53E840085017D3F803F7E3F813F7D31F6
:10393E0008007208CA3E8400850142011908800001
:10394E00F20A08307202031CAD2CAE2CAF2CF20121
:10395E004001CB0A080046304B019F007C309D0091
:10396E009C014E018C12961603301E0000301E0074
:10397E009B31D3239C3180304B019E000800413196
:10398E00FF3F7B3F1E007B3F1E007B3F1E007B3FA9
:10399E001E007B3F9E3149269C317F3F9D315D2528
:1039AE009C317B31080058304001B1005830B000D6
:1039BE00B2143210B4014301990128309A009C01CF
:1039CE00133097004E010F118F111915991508001C
:1039DE004331FD3F7D3F890E0F390F39FF3F7D3F4C
:1039EE000F39FE3F0A301E007E3F9E3110269C315D
:1039FE00F4007E3F74077D3108009D31A4259D3172
:103A0E008B170B179231AB229D319231AB229D3128
:103A1E00913182219D3157301E0008301E009B319E
:103A2E00D3239D3108004131FF3F7F3FFF00063019
:103A3E007F020318232D242D2E2D07301E007E3FCE
:103A4E009E3110269D31A43E8400850180017F3178
:103A5E0008007E3FD03EFE007F3FFF00FF30FF3D5F
:103A6E0000307F020A3003197E02031C3F2D412DC8
:103A7E000130422D0030F400F5017E310800413155
:103A8E00FF3F7F3FFF000130FE007E3F890A502D31
:103A9E00FE35890B4F2D7E087F050319572D582DA6
:103AAE005A2D01305B2D00307E3108004131FF3F31
:103ABE007F3FFF0006307F020318662D672D722DA3
:103ACE0007301E007E3F9E3110269D31A43E84009D
:103ADE008501013080007F3108004331FD3F0A30FF
:103AEE001E007C3F913154219D31FF3F0A301E0054
:103AFE007C3F93311B239D31FE3F7E3F890EF03973
:103B0E00F4007F3F74077D3108004131FF3F4001D3
:103B1E0065080319932D942D982D7F3F89319E2191
:103B2E009D314001430803199D2D9E2DA22D7F3FEF
:103B3E00913101219D317F3108009B31E2239D316E
:103B4E00973123279D319B31FC239D318731F827F7
:103B5E009D319C31DA249D319B31DA239D319C318C
:103B6E00B2249D31933192239D3108004231FE3FA4
:103B7E007E3FFF3FC52D7E3F013EFE3F7E3F8400D0
:103B8E00013085000008031DCD2DCE2DC22D7E3FA8
:103B9E00FF007F3F7F02F400F501F41BF5037E3139
:103BAE000800083040016F020318DE2DDF2DF12DC5
:103BBE004D08283E84008501000842019A0040010C
:103BCE00CD0A08304D02031CED2DEE2DEF2DCD014B
:103BDE00EF0AF32D4E01191208004131FF3F7F3FCE
:103BEE00003E840090300318013E85000008FF3F20
:103BFE007F3FF0399C3128249D317F3FFF007F0E9F
:103C0E00F039FF007F08F0399C3128249D317F3137
:103C1E0008004231FE3F0030FF3F7E3F091C182E48
:103C2E00192E1E2E7D3FFF007F3F7F07FF3F7D3FFA
:103C3E008935FD3F7E3F8936FE3F7E3F031D282E90
:103C4E00292E142E7F3F7D3108004131FF3F7F3FEB
:103C5E00FF00FF0DFF0D41011D087F0603397F0692
:103C6E009D001D140D30890B3A2E000041019D144C
:103C7E009D18422E432E3F2E1C08F5001B08F40003
:103C8E007F3108004131FF3F7F3FFF0006307F024A
:103C9E000318522E532E642E07301E007E3F9E3187
:103CAE0010269E31A03E840085017B3F803F7C3FE5
:103CBE00813F7D3F823F7E3F833F7B310800413114
:103CCE00FF3F43011B1540014608023E840085015B
:103CDE00120000040319742E752E832E4608023E20
:103CEE0084008501003FFE00013FFF007E08840036
:103CFE007F0885007F3F8000C9017F3108007E3F2D
:103D0E00FE007F3FFF007F08803AF400803074028F
:103D1E00031D932E01307E020318962E972EA12E90
:103D2E007E3FF4007F3FF500F409F509F40A03190C
:103D3E00F50AA52E7E3FF4007F3FF5007E31080088
:103D4E004331FD3F40019812F8309C3128249E31BA
:103D5E0038309D31F4259E317D3F031DB72EB82E90
:103D6E00BD2E0C30FE3F0030FF3FC12E0D30FE3F0A
:103D7E000030FF3F7E3F9D31F4259E314001981665
:103D8E007D3108004131FF3F7A3FFE007B3FFF004F
:103D9E00FE35FF0D7F3F840085017E08803F7F0842
:103DAE00813F7F3FFF007F08023E840085017C3FFC
:103DBE0080007F3FFF007F08033E840085017D3F2A
:103DCE00803F7E3F813F7A31080041310130FF3F15
:103DDE007D3F203AF4007E3FF4040319F72EF82EAF
:103DEE000A2F7D3FF73EFE007E3FFF00FF30FF3D76
:103DFE0000307F02053003197E02031C072F082FA7
:103E0E000A2F0030FF3F7F3FF400F5017D3108009F
:103E1E004231FB300607FE00FF30073DFF007E08F3
:103E2E00FE3F7F08FF3FFE300607F600FF30073DDE
:103E3E00F70076081E0077081E00793F1E00793FB6
:103E4E001E0000309131E2219F317E311500860235
:103E5E000030873B080040013218362F372F502F85
:103E6E007B3F1E007B3F1E007B3F1E007B3F1E00E4
:103E7E007B3F1E0053309E31C9269F31793F1E0075
:103E8E00793F1E0053301E0001309431E2249F31E1
:103E9E00562F793F84007A3F85008001800A793160
:103EAE000800400132185C2F5D2F762F7B3F1E00DD
:103EBE007B3F1E007B3F1E007B3F1E007B3F1E0094
:103ECE004E309F317E279F31793F1E00793F1E0075
:103EDE004E301E0001309431E2249F317C2F793F09
:103EEE0084007A3F85008001800A793108004131D3
:103EFE00FF3F7A3FFE007B3FFF00FE35FF0D7F3F09
:103F0E00840085017E08803F7F08813F7F3F8400CB
:103F1E008501013080040131003080047F3FFF00B5
:103F2E007F08023E840085017C3F80007F3FFF00BA
:103F3E007F08033E840085017D3F803F7E3F813FA9
:103F4E007A3108004431FC3F0030FD3FFE3FC22F66
:103F5E007B3F1E007E3FFE00FF017E081E007F0895
:103F6E001E0094319A249F317D3F013EFD3FF401A6
:103F7E007E3F743DFE3F7D3FFF007C3FFF077F0885
:103F8E0084000130013085000008FF3F8908031DC1
:103F9E00D12FD22FAF2F7B31080042310030FE3FA0
:103FAE00FF3F7C3F091CDC2FDD2FE72F7E3FF40007
:103FBE007A3F7407FE3F7F3FF4007B3F743DFF3F27
:103FCE007A3F8935FA3F7B3F890DFB3F7D3F89362E
:103FDE00FD3F7C3F890CFC3F7C3F03197D3F031D59
:103FEE00F92FFA2FD82F7E3FF4007F3FF5007A315C
:023FFE000800B9
:020000040001F9
:0A000E00EC3FFF3F9F3FFF3FFF3F25
:00000001FF
